:400000000040002011000000E9090000E909000010B500F0F1FCC04610B51222154B1A60302000F045FF144A144B1A60C0229200134B1A60134B144A1A608021C900134AEC
:400040001160134A1A6080221206124B1A608022D202114B1A604122104B1A601049072000F084FE072000F075FE00220D4B1A6010BDC046300010400600008004010B408A
:40008000000301400000014040FF00800403014041FF008008010B4000010B404C010140051000000C020B4010B572B60122324B1A7000240FE031486200131959000B00C3
:4000C000411889881A5AC31858880004104300F085FC0134E4B2012CEDD928490C312848083000F051FC0322264B1A602649274B1960EE210902264B196099231B04254997
:400100000B60802040022449086024490B60C620C0032349086023490B6023490B60234B1A60234B1A6023490B783932934314221343DBB20B70204A117816230B43DBB2FF
:40014000137001231D4A13601D491E4A11600E211D4A1160DB2109011C4A11601C491D4A11601D4A13601D4A1D4B1A60FFF754FF00F024FC10BDC0461C700F40E815000077
:40018000E81600000000024030330000000102400003024000500F4008500F4010500F4018500F4020500F4030500F402000104000800F4001700F4000700F4000000440D8
:4001C000DE066000080004400001044008010440B66D1B0008020440000304408A0D00000803044010B5064C2378002B07D1054B002B02D0044800E000BF0123237010BDB3
:40020000480100200000000024150000084B10B5002B03D00749084800E000BF07480368002B00D110BD064B002BFBD09847F9E7000000004C01002024150000C0000020B8
:4002400000000000064A138801339BB21380054A934203D1024A5388013353807047C04664010020E02E00000022014B1A8070476401002010B5012000F016FF00F01AFFD1
:400280000F231840022858D002D8012805D00AE0042804D0082804D005E0012054E0072052E00E2050E0022000F0FEFE00F002FF0F231840022842D002D8012805D00AE024
:4002C000042804D0082804D005E002203CE008203AE0002038E0042000F0E6FE00F0EAFE0F23184002282CD002D8012805D00AE0042804D0082804D005E0032024E00920E2
:4003000022E00F2020E0082000F0CEFE00F0D2FE0F231840022816D002D8012805D00AE0042804D0082804D005E00A200CE00C200AE00D2008E0142006E0042004E005201B
:4003400002E0062000E00B2010BDC04610B5140000F0A8FC200000F03BFC10BDF0B58DB00600019107AA174B110091CB91C118001B680B6083888B8003AC134B2100A1CB14
:40038000A1C11B780B7000210020FFF7DFFF1221002000F087FC300000F0A2FC220000210120FFF7D3FF0D21002000F07BFC019800F096FC054A00210220FFF7C7FF0020CA
:4003C0000DB0F0BD381500004C15000028150000F0B587B0040005AB00221A705A709A7001AB754A23CA23C3190013880B80734B9C420CD801AA00210020FFF7A7FF0E21E4
:40040000002000F04FFC200000F06AFC1CE0632C0CD86B4A00210020FFF798FF0F21002000F040FC200000F05BFC0DE0092C0BD8644A00210020FFF789FF1021002000F063
:4004400031FC200000F04CFC5F4A00210120FFF77DFF5E4A09210120FFF778FF5C4A00210220FFF773FF0026002700249EE0FFF701FF05000300092831D8002C0DD1002890
:400480000BD005AB18550134E4B20F21002000F009FC280000F024FC88E0012C0BD105AB1D550134E4B20E21002000F0FBFB280000F016FC7AE0022C78D105AA1278012A0A
:4004C00074D1002B72D105AB1D550134E4B20D21002000F0E7FB280000F002FC66E00A2860D00E2821D1012C03D105AB1F7801265CE0022C09D105AB19785F788A008A185F
:400500005300FB18DFB2012650E0032C4DD105A803784578877864215943AA00AA185300CB18FB18DFB2012640E00F283ED1012C0AD1284A10210020FFF708FF013CE4B2AD
:40054000002205AB1A5531E0022C11D1214A0F210020FFF7FBFE1021002000F0A3FB05AD287800F0BDFB013CE4B200232B551DE0032C1BD1174A0E210020FFF7E7FE0F214D
:40058000002000F08FFB05AD29786B788A008A185000C01880B200F0A3FB013CE4B200232B5503E00126002700E00126012E00D05DE7380007B0F0BD9C150000E70300002F
:4005C0005C1500006C1500007C1500008415000090150000B4150000F0B5474680B484B0040003AB00221A705A709A706B467C4A03CA03C3190013780B707A4B9C420CD8F5
:400600006A4600210020FFF7A1FE0921002000F049FB200000F064FB1CE0632C0CD8724A00210020FFF792FE0A21002000F03AFB200000F055FB0DE0092C0BD86B4A0021AA
:400640000020FFF783FE0B21002000F02BFB200000F046FB664A00210120FFF777FE654A09210120FFF772FE634A00210220FFF76DFE0026002398460024A8E0FFF7FAFD62
:400680000500092838D8002C0DD100280BD003AB18550134E4B20B21002000F003FB280000F01EFB93E0012C11D103AF3D550134E4B20A21002000F0F5FA39787B788A00AD
:4006C0008A185000C01880B200F00AFB7FE0022C7DD103AF3D550134E4B20921002000F0E1FA7978BB788A008A185000C018643080B200F0F5FA6AE00B2863D00E2824D112
:40070000012C04D103AB1B78984601265FE0022C0AD103AB19785A788B00CB1859008B189BB29846012652E0032C4FD103A90B784D78897864205843AA00AA185300C3182D
:400740005B189BB29846012641E00F283FD1012C0AD12A4A0B210020FFF7F8FD013CE4B2002203AB1A5532E0022C11D1234A0A210020FFF7EBFD0B21002000F093FA03AD56
:40078000287800F0ADFA013CE4B200232B551EE0032C1CD1194A09210020FFF7D7FD0A21002000F07FFA03AD29786B788A008A185000C01880B200F093FA013CE4B200231A
:4007C0002B5504E001260023984600E00126012E00D053E7404604B004BC9046F0BDC046D0150000E7030000AC150000B81500007C15000084150000C4150000B415000081
:40080000F0B587B007000C00019102AA424B110061CB61C11B880B8000210020FFF796FD0E21002000F03EFA380000F059FA0921012000F037FA200000F052FA374A022149
:400840000020FFF783FD00F0EDFC354800F01AFD344800F05DFD0026002550E0FFF70AFD6B469C88304B5B889C4201D00C2804D1012000F01FFD0136F6B2002F03D101202C
:4008800000F018FD0BE0BBB2274A1288934203D3002000F00FFD02E0012000F00BFDABB2214A528893422AD0E31A9BB2092B0AD80B21012000F0F6F91B4B5888201A80B25F
:4008C00000F00EFA19E0632B0AD80A21012000F0E9F9154B5888201A80B200F001FA0CE0124A934209D80921012000F0DBF90E4B5888201A80B200F0F3F90B4B9D78012EBA
:40090000ACD100F0B9FC00F0FDFC00F0C9FC00F073FC07B0F0BDC0469C150000DC150000450200006902000064010020E703000070B562B600F0A6F900F02EFC00F05CFC3D
:4009400000250024002001280BD0002804D002280DD0032811D0F6E729002000FFF7FEFCF1E7A0B2FFF734FD04000020EBE7A8B2FFF732FEC5B20020E5E729002000FFF77C
:400980003FFF0020DFE7C046F0B50025002711E0BB00C658F3B2FF22964308E06A008A181478A419527822700135013BDBB2002BF4D10137072FEBD9F0BDC0460323044AD2
:4009C0001360044A13600022034B1A607047C0463000304030003140000E3F4010B50A00002100F097FD10BD10B500F067FD03680C2B00D1FEE7FEE770B50F4E0F4D13E0E6
:400A000029686B68AC68002202E001C901C30432A242FAD1E868002202E0002102C304328242FAD11035013E002EE9D100F04CFDFFF77EFFFEE7C04601000000801700002D
:400A400010B50E4A136801218B43136000230AE0032B03D89A000A49505800E009489900094A885001332F2BF2D9FFF71DFB034A116801230B43136010BDC04600001040A6
:400A800000000000E90900000000002010B50B4C226860239A4322602268513B9A432260226810230343D8B210432060012000F03FFA236810229343236010BD0002044054
:400AC00070B505000E4C22682023134323602368402293432360002000F02AFA23680F2293432360226810232B43D8B210432060012000F01DFA236810229343236070BD4A
:400B000000020440F8B5274A13687F218B43136025490B681B0B1B03244803430B60136820218B431360116840230B431360CA277F00002000F0FCF91A4C23681026334307
:400B40002360012000F0F4F9194B1D682368B3432360002000F0ECF908231D40236833432360012000F0E4F92368B3432360002D02D10A2000F0DCF9013F002D01D0002FB8
:400B8000D7D1084B1A6840218A431A601A683F318A431A60044A13681B0B1B0305490B431360F8BD00020440080204404902000004020440B60D000010B50400FFF7A2FFBA
:400BC0002009FFF77DFF0F202040FFF779FF10BD70B505000078012404E0FFF7EDFF285D0134E4B20028F8D170BDC04610B50400FFF788FF2009FFF749FF0F202040FFF75D
:400C000045FF10BD10B5282000F0C2F80320FFF73DFF052000F0BCF80320FFF737FF0F2000F0B6F80320FFF731FF012000F0B0F80220FFF72BFF052000F0AAF80620FFF79B
:400C4000D5FF0E20FFF7D2FF2C20FFF7CFFF0820FFF7CCFF0120FFF7C9FF0C20FFF7C6FF0320FFF7C3FF052000F092F810BDC04610B50C20FFF7BAFF0122014B1A7010BD39
:400C80006801002010B5064B5B78002B04D1FFF7B9FF0122024B5A70FFF7EAFF10BDC0466801002010B501280BD0002804D002280CD003280FD012E08039C8B2FFF796FF1A
:400CC0000DE04039C8B2FFF791FF08E06C39C8B2FFF78CFF03E02C39C8B2FFF787FF10BD30B585B00400002201AB9A7209250EE00A21200000F0DCFBC9B2303101AB59559F
:400D00000A21200000F04EFB0400013DEDB2092CEED80A21200000F0CBFBC9B2303101A841554019FFF754FF05B030BD024A1168024B0B401360704700002240FFFFFFBF4E
:400D4000034B18688023DB05184000D001207047000022401F2318401E3B8340014A13607047C04600E100E001BE704770B504000D001F2802D90020FFF7F6FF1034A4000D
:400D800080239B059C4664442068256070BDC04610B5040006E0084B586800F0C9FA074B9C46644480231B029C42F4D8024B9868604300F0BDFA10BDC40000200080FFFFA5
:400DC00030B583B000F0C8F800285AD000F0B9FA040000230AE02C4A12683F210A402B49C95C8A4201D1033303E001332D2BF2D90323274A1268D20606D1254802681F210D
:400E00008A4313390A430260224A1168224A0A40224959438020C00184466144C90B01394905490D0A43A021490311430800192B02D81B4B1A430EE01A4A9A1812781A3B4C
:400E40001249C9183023CB5CD318FF2B00D9FF239B0502001A430F4B1A60134D2B680193302000F075FA114A13688021C9050B4313601420FFF78CFF019B2B60200000F0B1
:400E800064FA03B030BDC0462CFF0B401017000034FF0B400800224000F800C040420F000000D43FCDF1FF0F300010400000224030B587B0040000F044FA0500FFF740FF17
:400EC000002803D0FFF732FF012100E00021104B1B6800930F4B1B680193033C0E4B1B5D02930E4B1B68039304AA0D4B04936B4605930C4B1A600C480C4A10601B68012936
:400F000001D1FFF75DFF280000F01FFA07B030BD08010B4000010B401017000030001040B6EA000008001040170000800400104010B5034B1B7B584300F0FAF910BDC04694
:400F4000C4000020034B1868C0231B02184000D00120704700010B40034B1B68002B01DA012000E0002070470000224010B500F0E8F9044A1368C02109020B43136000F066
:400F8000E4F910BD00010B4010B500F0DAF908490A68084B1A408024E40122430A600A6813408022120213430B6000F0CEF910BD00010B40FF3FFFFF70B5050000F0C1F9CF
:400FC0000400FFF7BFFF002803D0FFF7DDFF012100E0002108482840084A1568084B2B40184310601368012901D1FFF7BFFF200000F0ABF970BDC0460404040010020B40BE
:40100000FBFBFBFF10B5244B1B685B0715D5234B5B685B070ED5224B596A042001401F4C62688A4362605A6A82435A629B69002B00D098470420FFF7BFFF174B1B685B05AE
:4010400018D5164B5B685B0510D5154B596A8022D2001140114842688A434260596A114A0A405A62DB69002B00D098478020C000FFF7A2FF084B1B685B030CD5074B5B685D
:401080005B0304D5064B1B6A002B00D098478020C002FFF791FF10BD10020B40D80000206C010020FFFBFFFF014B18707047C04672000F40014B1878C0B2704762000F40B2
:4010C000034A117880235B420B43DBB21370704773000F40024A11787F230B401370704773000F40014B18707047C04683000F40014B1878C0B2704763000F40014B18784F
:40110000C0B2704773000F40014B18707047C04673000F40014B18807047C04644100F40014B188880B2704784100F40014B18807047C04604100F40024B1B78024B1888A4
:4011400080B2704702000F4084100F4010B501E0FFF7E6FFFFF7CCFF0307F9D410BDC04610B50B4C2000FFF7D5FF2000FFF7DEFF00F0E7F8074A117810230B43DBB2137033
:4011800000F0E3F8FFF7E2FF0020FFF7ABFF10BD1F03000093000F4010B5064B1B78002B04D1FFF7DDFF0122024B1A70FFF788FF10BDC0469401002010B5FFF7BDFF044CBB
:4011C0006080044B1B782371FFF798FF607110BD9801002083000F4010B5054C6088FFF7A5FF2279034B1A706079FFF78DFF10BD9801002083000F4010B5084B1B785BB26D
:40120000002B03DA0122064B1A7002E00022044B1A70FFF75FFFFFF7CFFF10BD73000F409801002010B5FFF7D7FF034B1B78012B01D1FFF745FF10BD98010020014B586433
:401240007047C0460000002010B5040000F079F8044A1168044B0B40A4031C43146000F074F810BD00E400E0FF3FFFFF0222014B1A60704700E100E00222014B1A60704760
:4012800080E100E010B50400FFF7F6FF2000FFF7D5FF0120FFF7D8FFFFF7E8FF10BDC04610B5FFF7E9FF0248FFF7C8FF10BDC046E9090000044A1368DBB201218B430840B4
:4012C000184310607047C04600030440014B18647047C0460000002010B5040000F031F8044A1368C0218B43A4011C43146000F02CF810BD00E400E00122014B1A60704763
:4013000000E100E00122014B1A60704780E100E010B50400FFF7F6FF2000FFF7D7FF0020FFF7DAFFFFF7E8FF10BDC046000000000230800803D00138FDD1C046C046C04626
:401340007047EFF3108072B6704780F31088704770B50400FFF7F5FF0500102C05D8104A136803218B43136016E0202C07D80C490B6803229343023A13430B600CE0302C0F
:4013800007D807490B6803229343013A13430B6002E00020FFF7E8FC2800FFF7D6FF70BD30001040002243088B4274D303098B425FD3030A8B4244D3030B8B4228D3030CB6
:4013C0008B420DD3FF22090212BA030C8B4202D31212090265D0030B8B4219D300E0090AC30B8B4201D3CB03C01A5241830B8B4201D38B03C01A5241430B8B4201D34B0368
:40140000C01A5241030B8B4201D30B03C01A5241C30A8B4201D3CB02C01A5241830A8B4201D38B02C01A5241430A8B4201D34B02C01A5241030A8B4201D30B02C01A524175
:40144000CDD2C3098B4201D3CB01C01A524183098B4201D38B01C01A524143098B4201D34B01C01A524103098B4201D30B01C01A5241C3088B4201D3CB00C01A5241830806
:401480008B4201D38B00C01A524143088B4201D34B00C01A5241411A00D20146524110467047FFE701B5002000F006F802BDC0460029F7D076E770477047C046014B1868DF
:4014C0007047C046400100200E4B70B500251E000D4CE41AA410A54204D0AB00F35898470135F8E700F03AF9084B00251E00084CE41AA410A54204D0AB00F35898470135D8
:40150000F8E770BD6817000068170000681700007017000003008218934202D019700133FAE770470000000053746172742044696D6D65723A204300496E74656E7369748B
:40154000792841293A2020202500000054696D652842293A2020207300000000496E74656E736974792825293A300000496E74656E736974792825293A303000456E746568
:40158000723A2A0044656C6574653A230000000043616E63656C3A4100000000496E74656E736974792825293A00000054696D652873293A3000000054696D652873293A23
:4015C0003030000043616E63656C3A420000000054696D652873293A0000000043616E63656C3A204300000000300F40000400400F400004830D8B08E480404549FF4AFFA6
:401600004BFF4F0150185A045B045F016040624064406540668068806A806C806E808E019201B001B201BE01C054C5ECC720C823C9FFCAFFCBFFCD83CE03CF01D018D2800C
:40164000D401D804DA04DB04DF01E040E240E440E540E680E880EA80EC80EE8002020B401A401B084101468049054B404E025101520259055A405D405F2A6DA06FA07280B0
:4016800073408110878089408F2091409B2AA708A940AB22B708C001C208D081D218D6FBE2C0E620EA100304051006400E02572068016C048A40C0E0C280D440DAC0520204
:4016C000538054408202872088418F80A401A720A910AA01AB04B404D4E0E280E610E880ECA005088908C004E20101011001000001000F4002310F4031320F4025330F40C6
:401700000C400F4012410F4004430F4002600F40030405060708090A0B0C0E0F101112131415161718191B1C1D1E1F2021222325262728292A2B2E2F303132333435000035
:40174000EEDBC9B9AA9B8E82766B60564D443B332C241D17100A044300000000F8B5C046F8BC08BC9E4670470D020000410A0000F8B5C046F8BC08BC9E467047E501000082
:4017800090170000C0000020880000005800000000000000010000000000C05D80BB000030000000006CDC02F00000000404040000000000000000000000000000000000F3
:4017C000000000000000000000000000000000005717000000000000000000000000000000000000000000000000000000000000000000000000000000000000000000007B
:4018000000000000000000000000000000000000E00000200000000000000000000000000000000000000000000000000000000000000000000000000000000000000000A8
:401840000000000000000000000000000000000000000000000000000000000000000000000000000000000000000000000000000000000000000000000000000000000068
:401880000000000000000000000000000000000000000000000000000000000000000000000000000000000000000000000000000000000000000000000000000000000028
:4018C00000000000000000000000000000000000000000000000000000000000000000000000000000000000000000000000000000000000000000000000000000000000E8
:4019000000000000000000000000000000000000000000000000000000000000000000000000000000000000000000000000000000000000000000000000000000000000A7
:020000040001F9
:0200000490303A
:0200000025BE1B
:0200000490402A
:4000000000000000000000000000000000000000000000000000000000000000000000000000000000000000000000000000000000000000000000000000000000000000C0
:400040000000000000000000000000000000000000000000000000000000000000000000000000000000000000000000000000000000000000000000000000000000000080
:0200000490501A
:0C0000000002112D11A100011135375F25
:0200000490600A
:0100000001FE
:00000001FF